S01700004763634170706C69636174696F6E312E737265635B
S11300000C942A000C943F000C943F000C943F0085
S11300100C943F000C943F000C943F000C943F0060
S11300200C943F000C943F000C943F000C943F0050
S11300300C943F000C943F000C943F000C943F0040
S11300400C943F000C943F000C943F000C943F0030
S11300500C943F0011241FBECFE5D8E0DEBFCDBF16
S113006010E0A0E6B0E0E6EAF4E002C005900D92EC
S1130070A43BB107D9F70E94BA000C9451020C9426
S113008000003E9A87E886B9089597B1907E97B9A3
S113009097B18770982B97B9369A349BFECF349AD0
S11300A084B195B1089584E18ABB80E18BBB83EC74
S11300B099E00197F1F700C0000083E00E94450039
S11300C008958AE08ABB82E08BBB83EC99E00197B8
S11300D0F1F700C0000084E00E94450008958C9A66
S11300E08FB580628FBD8EB582618EBD0895EF920B
S11300F0FF920F931F93CF93DF93EC0188EE93E06D
S1130100689FD001699FB00D11240F2EF4E6EF2EE5
S1130110F12CF02D60E270E000E010E01DC08A8157
S11301209B8124962130310519F419BC18BC04C0F4
S1130130F9BCE8BC37BD26BDAB01481B590B1416EE
S1130140150654F4202F312FFD013197F1F72F5F5D
S11301503F4F24173507C1F728813981211531050F
S1130160F1F619BC18BCDF91CF911F910F91FF904C
S1130170EF900895CF93DF9300D000D000D0CDB797
S1130180DEB70E946F000E9441006894EE24E3F8F9
S1130190F12C0E9461008C010E945300011511058D
S11301A0C1F30097B1F3BC0180E090E00E945601D6
S11301B020E030E040E85BE30E94BC0120E030E056
S11301C040EC50E40E94BC010E9420014B015C0100
S11301D086E088169104E9F2B80180E090E00E947C
S11301E0560120E030E040E85BE30E94BC0120E0DF
S11301F030E040E051E40E94BC010E9420016730DD
S113020071053CF6F401EE0FFF1FEE0FFF1FEE0F1A
S1130210FF1FE819F9096E0F7F1F660F771FFB0197
S1130220E05AFF4F808191819A838983FC82EB821B
S11302301E821D8264E1CE0101960E947700A9CF3F
S11302400E9427016894B1110C94B60108950E948C
S11302509B0188F09F5798F0B92F9927B751B0F0B8
S1130260E1F0660F771F881F991F1AF0BA95C9F736
S113027014C0B13091F00E94B501B1E008950C941E
S1130280B501672F782F8827B85F39F0B93FCCF3D1
S1130290869577956795B395D9F73EF490958095B3
S11302A0709561957F4F8F4F9F4F0895E89409C0D3
S11302B097FB3EF490958095709561957F4F8F4F95
S11302C09F4F9923A9F0F92F96E9BB279395F695AB
S11302D0879577956795B795F111F8CFFAF4BB0F29
S11302E011F460FF1BC06F5F7F4F8F4F9F4F16C08D
S11302F0882311F096E911C0772321F09EE8872F17
S1130300762F05C0662371F096E8862F70E060E0D2
S11303102AF09A95660F771F881FDAF7880F96954B
S1130320879597F9089557FD9058440F551F59F034
S11303305F3F71F04795880F97FB991F61F09F3FCE
S113034079F087950895121613061406551FF2CFF7
S11303504695F1DF08C0161617061806991FF1CF47
S113036086957105610508940895E894BB2766276E
S11303707727CB0197F908950E94CF010C9440028E
S11303800E94320238F00E94390220F0952311F0C5
S11303900C9429020C942F0211240C94B6010E948F
S11303A0930170F3959FC1F3950F50E0551F629F21
S11303B0F001729FBB27F00DB11D639FAA27F00DBA
S11303C0B11DAA1F649F6627B00DA11D661F829FE1
S11303D02227B00DA11D621F739FB00DA11D621FC6
S11303E0839FA00D611D221F749F3327A00D611DE3
S11303F0231F849F600D211D822F762F6A2F1124C5
S11304009F5750409AF0F1F088234AF0EE0FFF1FF7
S1130410BB1F661F771F881F91505040A9F79E3F4E
S1130420510580F00C9429020C94B6015F3FE4F36B
S1130430983ED4F3869577956795B795F795E795A4
S11304409F5FC1F7FE2B880F911D9695879597F9AD
S1130450089597F99F6780E870E060E008959FEF42
S113046080EC089500240A94161617061806090647
S1130470089500240A941216130614060506089516
S1130480092E0394000C11F4882352F0BB0F40F49E
S1130490BF2B11F460FF04C06F5F7F4F8F4F9F4FDE
S10904A00895F894FFCF5B
S11304A6EE135F16B3179A1ADD1DD20FC111F709A1
S11304B62F0BDA0B4D0DEE0EE907E108FC04980547
S11304C6ED05A7067707F40370047E02CC02F60254
S11304D65303BC03FA0138023F0166017B01AA01FA
S11304E6DE01FD001C019F00B300BE00D500EF0035
S10704F67F008E00F1
S9030000FC
